{"abi":[{"type":"constructor","inputs":[],"stateMutability":"nonpayable"},{"type":"function","name":"DEFAULT_ADMIN_ROLE","inputs":[],"outputs":[{"name":"","type":"bytes32","internalType":"bytes32"}],"stateMutability":"view"},{"type":"function","name":"URI_UPDATER_ROLE","inputs":[],"outputs":[{"name":"","type":"bytes32","internalType":"bytes32"}],"stateMutability":"view"},{"type":"function","name":"approve","inputs":[{"name":"to","type":"address","internalType":"address"},{"name":"tokenId","type":"uint256","internalType":"uint256"}],"outputs":[],"stateMutability":"nonpayable"},{"type":"function","name":"balanceOf","inputs":[{"name":"owner","type":"address","internalType":"address"}],"outputs":[{"name":"","type":"uint256","internalType":"uint256"}],"stateMutability":"view"},{"type":"function","name":"getApproved","inputs":[{"name":"tokenId","type":"uint256","internalType":"uint256"}],"outputs":[{"name":"","type":"address","internalType":"address"}],"stateMutability":"view"},{"type":"function","name":"getCount","inputs":[],"outputs":[{"name":"","type":"uint256","internalType":"uint256"}],"stateMutability":"view"},{"type":"function","name":"getPerformances","inputs":[{"name":"diplomeId","type":"uint256","internalType":"uint256"}],"outputs":[{"name":"","type":"uint256[]","internalType":"uint256[]"}],"stateMutability":"view"},{"type":"function","name":"getRoleAdmin","inputs":[{"name":"role","type":"bytes32","internalType":"bytes32"}],"outputs":[{"name":"","type":"bytes32","internalType":"bytes32"}],"stateMutability":"view"},{"type":"function","name":"grantRole","inputs":[{"name":"role","type":"bytes32","internalType":"bytes32"},{"name":"account","type":"address","internalType":"address"}],"outputs":[],"stateMutability":"nonpayable"},{"type":"function","name":"hasRole","inputs":[{"name":"role","type":"bytes32","internalType":"bytes32"},{"name":"account","type":"address","internalType":"address"}],"outputs":[{"name":"","type":"bool","internalType":"bool"}],"stateMutability":"view"},{"type":"function","name":"isApprovedForAll","inputs":[{"name":"owner","type":"address","internalType":"address"},{"name":"operator","type":"address","internalType":"address"}],"outputs":[{"name":"","type":"bool","internalType":"bool"}],"stateMutability":"view"},{"type":"function","name":"mint","inputs":[{"name":"to","type":"address","internalType":"address"},{"name":"initialURI","type":"string","internalType":"string"},{"name":"_type","type":"uint8","internalType":"enum ESGI_diplomes.Types"},{"name":"diplomeId","type":"uint256","internalType":"uint256"}],"outputs":[],"stateMutability":"nonpayable"},{"type":"function","name":"name","inputs":[],"outputs":[{"name":"","type":"string","internalType":"string"}],"stateMutability":"view"},{"type":"function","name":"ownerOf","inputs":[{"name":"tokenId","type":"uint256","internalType":"uint256"}],"outputs":[{"name":"","type":"address","internalType":"address"}],"stateMutability":"view"},{"type":"function","name":"renounceRole","inputs":[{"name":"role","type":"bytes32","internalType":"bytes32"},{"name":"callerConfirmation","type":"address","internalType":"address"}],"outputs":[],"stateMutability":"nonpayable"},{"type":"function","name":"revokeRole","inputs":[{"name":"role","type":"bytes32","internalType":"bytes32"},{"name":"account","type":"address","internalType":"address"}],"outputs":[],"stateMutability":"nonpayable"},{"type":"function","name":"revokeToken","inputs":[{"name":"tokenId","type":"uint256","internalType":"uint256"}],"outputs":[],"stateMutability":"nonpayable"},{"type":"function","name":"safeTransferFrom","inputs":[{"name":"from","type":"address","internalType":"address"},{"name":"to","type":"address","internalType":"address"},{"name":"tokenId","type":"uint256","internalType":"uint256"}],"outputs":[],"stateMutability":"nonpayable"},{"type":"function","name":"safeTransferFrom","inputs":[{"name":"from","type":"address","internalType":"address"},{"name":"to","type":"address","internalType":"address"},{"name":"tokenId","type":"uint256","internalType":"uint256"},{"name":"data","type":"bytes","internalType":"bytes"}],"outputs":[],"stateMutability":"nonpayable"},{"type":"function","name":"setApprovalForAll","inputs":[{"name":"operator","type":"address","internalType":"address"},{"name":"approved","type":"bool","internalType":"bool"}],"outputs":[],"stateMutability":"nonpayable"},{"type":"function","name":"supportsInterface","inputs":[{"name":"interfaceId","type":"bytes4","internalType":"bytes4"}],"outputs":[{"name":"","type":"bool","internalType":"bool"}],"stateMutability":"view"},{"type":"function","name":"symbol","inputs":[],"outputs":[{"name":"","type":"string","internalType":"string"}],"stateMutability":"view"},{"type":"function","name":"tokenURI","inputs":[{"name":"tokenId","type":"uint256","internalType":"uint256"}],"outputs":[{"name":"","type":"string","internalType":"string"}],"stateMutability":"view"},{"type":"function","name":"transferFrom","inputs":[{"name":"from","type":"address","internalType":"address"},{"name":"to","type":"address","internalType":"address"},{"name":"tokenId","type":"uint256","internalType":"uint256"}],"outputs":[],"stateMutability":"nonpayable"},{"type":"function","name":"updateTokenURI","inputs":[{"name":"tokenId","type":"uint256","internalType":"uint256"},{"name":"newURI","type":"string","internalType":"string"}],"outputs":[],"stateMutability":"nonpayable"},{"type":"event","name":"Approval","inputs":[{"name":"owner","type":"address","indexed":true,"internalType":"address"},{"name":"approved","type":"address","indexed":true,"internalType":"address"},{"name":"tokenId","type":"uint256","indexed":true,"internalType":"uint256"}],"anonymous":false},{"type":"event","name":"ApprovalForAll","inputs":[{"name":"owner","type":"address","indexed":true,"internalType":"address"},{"name":"operator","type":"address","indexed":true,"internalType":"address"},{"name":"approved","type":"bool","indexed":false,"internalType":"bool"}],"anonymous":false},{"type":"event","name":"RoleAdminChanged","inputs":[{"name":"role","type":"bytes32","indexed":true,"internalType":"bytes32"},{"name":"previousAdminRole","type":"bytes32","indexed":true,"internalType":"bytes32"},{"name":"newAdminRole","type":"bytes32","indexed":true,"internalType":"bytes32"}],"anonymous":false},{"type":"event","name":"RoleGranted","inputs":[{"name":"role","type":"bytes32","indexed":true,"internalType":"bytes32"},{"name":"account","type":"address","indexed":true,"internalType":"address"},{"name":"sender","type":"address","indexed":true,"internalType":"address"}],"anonymous":false},{"type":"event","name":"RoleRevoked","inputs":[{"name":"role","type":"bytes32","indexed":true,"internalType":"bytes32"},{"name":"account","type":"address","indexed":true,"internalType":"address"},{"name":"sender","type":"address","indexed":true,"internalType":"address"}],"anonymous":false},{"type":"event","name":"Transfer","inputs":[{"name":"from","type":"address","indexed":true,"internalType":"address"},{"name":"to","type":"address","indexed":true,"internalType":"address"},{"name":"tokenId","type":"uint256","indexed":true,"internalType":"uint256"}],"anonymous":false},{"type":"error","name":"AccessControlBadConfirmation","inputs":[]},{"type":"error","name":"AccessControlUnauthorizedAccount","inputs":[{"name":"account","type":"address","internalType":"address"},{"name":"neededRole","type":"bytes32","internalType":"bytes32"}]},{"type":"error","name":"ERC721IncorrectOwner","inputs":[{"name":"sender","type":"address","internalType":"address"},{"name":"tokenId","type":"uint256","internalType":"uint256"},{"name":"owner","type":"address","internalType":"address"}]},{"type":"error","name":"ERC721InsufficientApproval","inputs":[{"name":"operator","type":"address","internalType":"address"},{"name":"tokenId","type":"uint256","internalType":"uint256"}]},{"type":"error","name":"ERC721InvalidApprover","inputs":[{"name":"approver","type":"address","internalType":"address"}]},{"type":"error","name":"ERC721InvalidOperator","inputs":[{"name":"operator","type":"address","internalType":"address"}]},{"type":"error","name":"ERC721InvalidOwner","inputs":[{"name":"owner","type":"address","internalType":"address"}]},{"type":"error","name":"ERC721InvalidReceiver","inputs":[{"name":"receiver","type":"address","internalType":"address"}]},{"type":"error","name":"ERC721InvalidSender","inputs":[{"name":"sender","type":"address","internalType":"address"}]},{"type":"error","name":"ERC721NonexistentToken","inputs":[{"name":"tokenId","type":"uint256","internalType":"uint256"}]}],"bytecode":{"object":"0x608060405234801561001057600080fd5b506040518060400160405280600d81526020016c455347495f6469706c6f6d657360981b815250604051806040016040528060058152602001641154d1125960da1b81525081600090816100649190610201565b5060016100718282610201565b50610081915060009050336100b2565b506100ac7f6ee315d4faf1b0c431d0ecf2a43a011e467519ee93e96ae9adec9f0a251fe810336100b2565b506102bf565b60008281526006602090815260408083206001600160a01b038516845290915281205460ff166101585760008381526006602090815260408083206001600160a01b03861684529091529020805460ff191660011790556101103390565b6001600160a01b0316826001600160a01b0316847f2f8788117e7eff1d82e926ec794901d17c78024a50270940304540a733656f0d60405160405180910390a450600161015c565b5060005b92915050565b634e487b7160e01b600052604160045260246000fd5b600181811c9082168061018c57607f821691505b6020821081036101ac57634e487b7160e01b600052602260045260246000fd5b50919050565b601f8211156101fc57806000526020600020601f840160051c810160208510156101d95750805b601f840160051c820191505b818110156101f957600081556001016101e5565b50505b505050565b81516001600160401b0381111561021a5761021a610162565b61022e816102288454610178565b846101b2565b6020601f821160018114610262576000831561024a5750848201515b600019600385901b1c1916600184901b1784556101f9565b600084815260208120601f198516915b828110156102925787850151825560209485019460019092019101610272565b50848210156102b05786840151600019600387901b60f8161c191681555b50505050600190811b01905550565b6117fb806102ce6000396000f3fe608060405234801561001057600080fd5b50600436106101735760003560e01c80637dc9e79b116100de578063a87d942c11610097578063c87b56dd11610071578063c87b56dd14610356578063d547741f14610369578063e985e9c51461037c578063f67e3c4a1461038f57600080fd5b8063a87d942c14610314578063b79c2e561461031c578063b88d4fde1461034357600080fd5b80637dc9e79b146102ab57806391d14854146102be57806395d89b41146102d15780639c9d7c2c146102d9578063a217fddf146102f9578063a22cb4651461030157600080fd5b8063248a9ca311610130578063248a9ca31461021b5780632f2ff15d1461024c57806336568abe1461025f57806342842e0e146102725780636352211e1461028557806370a082311461029857600080fd5b806301ffc9a71461017857806306fdde03146101a0578063081812fc146101b5578063095ea7b3146101e057806318e97fd1146101f557806323b872dd14610208575b600080fd5b61018b6101863660046111b5565b6103a2565b60405190151581526020015b60405180910390f35b6101a86103b3565b604051610197919061121f565b6101c86101c3366004611232565b610445565b6040516001600160a01b039091168152602001610197565b6101f36101ee366004611260565b61046e565b005b6101f361020336600461133c565b61047d565b6101f3610216366004611383565b6104ef565b61023e610229366004611232565b60009081526006602052604090206001015490565b604051908152602001610197565b6101f361025a3660046113c4565b610574565b6101f361026d3660046113c4565b610599565b6101f3610280366004611383565b6105d1565b6101c8610293366004611232565b6105ec565b61023e6102a63660046113f4565b6105f7565b6101f36102b9366004611232565b61063f565b61018b6102cc3660046113c4565b6106a4565b6101a86106cf565b6102ec6102e7366004611232565b6106de565b6040516101979190611411565b61023e600081565b6101f361030f366004611454565b610740565b60075461023e565b61023e7f6ee315d4faf1b0c431d0ecf2a43a011e467519ee93e96ae9adec9f0a251fe81081565b6101f3610351366004611487565b61074b565b6101a8610364366004611232565b610763565b6101f36103773660046113c4565b610879565b61018b61038a366004611507565b61089e565b6101f361039d366004611535565b6108cc565b60006103ad826109ea565b92915050565b6060600080546103c2906115a3565b80601f01602080910402602001604051908101604052809291908181526020018280546103ee906115a3565b801561043b5780601f106104105761010080835404028352916020019161043b565b820191906000526020600020905b81548152906001019060200180831161041e57829003601f168201915b5050505050905090565b600061045082610a0f565b506000828152600460205260409020546001600160a01b03166103ad565b610479828233610a48565b5050565b7f6ee315d4faf1b0c431d0ecf2a43a011e467519ee93e96ae9adec9f0a251fe8106104a781610a55565b60075483106104d15760405162461bcd60e51b81526004016104c8906115dd565b60405180910390fd5b60008381526008602052604090206104e98382611652565b50505050565b6001600160a01b03821661051957604051633250574960e11b8152600060048201526024016104c8565b6000610526838333610a62565b9050836001600160a01b0316816001600160a01b0316146104e9576040516364283d7b60e01b81526001600160a01b03808616600483015260248201849052821660448201526064016104c8565b60008281526006602052604090206001015461058f81610a55565b6104e98383610b5b565b6001600160a01b03811633146105c25760405163334bd91960e11b815260040160405180910390fd5b6105cc8282610bef565b505050565b6105cc8383836040518060200160405280600081525061074b565b60006103ad82610a0f565b60006001600160a01b038216610623576040516322718ad960e21b8152600060048201526024016104c8565b506001600160a01b031660009081526003602052604090205490565b600061064a81610a55565b600754821061066b5760405162461bcd60e51b81526004016104c8906115dd565b61067482610c5c565b600082815260086020526040812061068b91611151565b506000908152600960205260409020805460ff19169055565b60009182526006602090815260408084206001600160a01b0393909316845291905290205460ff1690565b6060600180546103c2906115a3565b6000818152600a602090815260409182902080548351818402810184019094528084526060939283018282801561073457602002820191906000526020600020905b815481526020019060010190808311610720575b50505050509050919050565b610479338383610c97565b6107568484846104ef565b6104e93385858585610d36565b6040516331a9108f60e11b8152600481018290526060903090636352211e90602401602060405180830381865afa9250505080156107be575060408051601f3d908101601f191682019092526107bb91810190611711565b60015b6107da5760405162461bcd60e51b81526004016104c8906115dd565b600083815260086020526040902080546107f3906115a3565b80601f016020809104026020016040519081016040528092919081815260200182805461081f906115a3565b801561086c5780601f106108415761010080835404028352916020019161086c565b820191906000526020600020905b81548152906001019060200180831161084f57829003601f168201915b5050505050915050919050565b60008281526006602052604090206001015461089481610a55565b6104e98383610bef565b6001600160a01b03918216600090815260056020908152604080832093909416825291909152205460ff1690565b60006108d781610a55565b60008360018111156108eb576108eb61172e565b14806108f8575060075482105b61093d5760405162461bcd60e51b8152602060048201526016602482015275111a5c1b1bdb5948191bd95cc81b9bdd08195e1a5cdd60521b60448201526064016104c8565b6007546000818152600960205260409020805485919060ff19166001838181111561096a5761096a61172e565b021790555060018460018111156109835761098361172e565b036109aa576000838152600a60209081526040822080546001810182559083529120018190555b6109b48682610e61565b60008181526008602052604090206109cc8682611652565b50600780549060006109dd83611744565b9190505550505050505050565b60006001600160e01b03198216637965db0b60e01b14806103ad57506103ad82610e7b565b6000818152600260205260408120546001600160a01b0316806103ad57604051637e27328960e01b8152600481018490526024016104c8565b6105cc8383836001610ecb565b610a5f8133610fd1565b50565b6000828152600260205260408120546001600160a01b0390811690831615610a8f57610a8f81848661100a565b6001600160a01b03811615610acd57610aac600085600080610ecb565b6001600160a01b038116600090815260036020526040902080546000190190555b6001600160a01b03851615610afc576001600160a01b0385166000908152600360205260409020805460010190555b60008481526002602052604080822080546001600160a01b0319166001600160a01b0389811691821790925591518793918516917fddf252ad1be2c89b69c2b068fc378daa952ba7f163c4a11628f55a4df523b3ef91a4949350505050565b6000610b6783836106a4565b610be75760008381526006602090815260408083206001600160a01b03861684529091529020805460ff19166001179055610b9f3390565b6001600160a01b0316826001600160a01b0316847f2f8788117e7eff1d82e926ec794901d17c78024a50270940304540a733656f0d60405160405180910390a45060016103ad565b5060006103ad565b6000610bfb83836106a4565b15610be75760008381526006602090815260408083206001600160a01b0386168085529252808320805460ff1916905551339286917ff6391f5c32d9c69d2a47ea670b442974b53935d1edc7fd64eb21e047a839171b9190a45060016103ad565b6000610c6b6000836000610a62565b90506001600160a01b03811661047957604051637e27328960e01b8152600481018390526024016104c8565b6001600160a01b038216610cc957604051630b61174360e31b81526001600160a01b03831660048201526024016104c8565b6001600160a01b03838116600081815260056020908152604080832094871680845294825291829020805460ff191686151590811790915591519182527f17307eab39ab6107e8899845ad3d59bd9653f200f220920489ca2b5937696c31910160405180910390a3505050565b6001600160a01b0383163b15610e5a57604051630a85bd0160e11b81526001600160a01b0384169063150b7a0290610d7890889088908790879060040161176b565b6020604051808303816000875af1925050508015610db3575060408051601f3d908101601f19168201909252610db0918101906117a8565b60015b610e1c573d808015610de1576040519150601f19603f3d011682016040523d82523d6000602084013e610de6565b606091505b508051600003610e1457604051633250574960e11b81526001600160a01b03851660048201526024016104c8565b805181602001fd5b6001600160e01b03198116630a85bd0160e11b14610e5857604051633250574960e11b81526001600160a01b03851660048201526024016104c8565b505b5050505050565b61047982826040518060200160405280600081525061106e565b60006001600160e01b031982166380ac58cd60e01b1480610eac57506001600160e01b03198216635b5e139f60e01b145b806103ad57506301ffc9a760e01b6001600160e01b03198316146103ad565b8080610edf57506001600160a01b03821615155b15610fa1576000610eef84610a0f565b90506001600160a01b03831615801590610f1b5750826001600160a01b0316816001600160a01b031614155b8015610f2e5750610f2c818461089e565b155b15610f575760405163a9fbf51f60e01b81526001600160a01b03841660048201526024016104c8565b8115610f9f5783856001600160a01b0316826001600160a01b03167f8c5be1e5ebec7d5bd14f71427d1e84f3dd0314c0f7b2291e5b200ac8c7c3b92560405160405180910390a45b505b5050600090815260046020526040902080546001600160a01b0319166001600160a01b0392909216919091179055565b610fdb82826106a4565b6104795760405163e2517d3f60e01b81526001600160a01b0382166004820152602481018390526044016104c8565b611015838383611086565b6105cc576001600160a01b03831661104357604051637e27328960e01b8152600481018290526024016104c8565b60405163177e802f60e01b81526001600160a01b0383166004820152602481018290526044016104c8565b61107883836110ec565b6105cc336000858585610d36565b60006001600160a01b038316158015906110e45750826001600160a01b0316846001600160a01b031614806110c057506110c0848461089e565b806110e457506000828152600460205260409020546001600160a01b038481169116145b949350505050565b6001600160a01b03821661111657604051633250574960e11b8152600060048201526024016104c8565b600061112483836000610a62565b90506001600160a01b038116156105cc576040516339e3563760e11b8152600060048201526024016104c8565b50805461115d906115a3565b6000825580601f1061116d575050565b601f016020900490600052602060002090810190610a5f91905b8082111561119b5760008155600101611187565b5090565b6001600160e01b031981168114610a5f57600080fd5b6000602082840312156111c757600080fd5b81356111d28161119f565b9392505050565b6000815180845260005b818110156111ff576020818501810151868301820152016111e3565b506000602082860101526020601f19601f83011685010191505092915050565b6020815260006111d260208301846111d9565b60006020828403121561124457600080fd5b5035919050565b6001600160a01b0381168114610a5f57600080fd5b6000806040838503121561127357600080fd5b823561127e8161124b565b946020939093013593505050565b634e487b7160e01b600052604160045260246000fd5b60008067ffffffffffffffff8411156112bd576112bd61128c565b50604051601f19601f85018116603f0116810181811067ffffffffffffffff821117156112ec576112ec61128c565b60405283815290508082840185101561130457600080fd5b83836020830137600060208583010152509392505050565b600082601f83011261132d57600080fd5b6111d2838335602085016112a2565b6000806040838503121561134f57600080fd5b82359150602083013567ffffffffffffffff81111561136d57600080fd5b6113798582860161131c565b9150509250929050565b60008060006060848603121561139857600080fd5b83356113a38161124b565b925060208401356113b38161124b565b929592945050506040919091013590565b600080604083850312156113d757600080fd5b8235915060208301356113e98161124b565b809150509250929050565b60006020828403121561140657600080fd5b81356111d28161124b565b602080825282518282018190526000918401906040840190835b8181101561144957835183526020938401939092019160010161142b565b509095945050505050565b6000806040838503121561146757600080fd5b82356114728161124b565b9150602083013580151581146113e957600080fd5b6000806000806080858703121561149d57600080fd5b84356114a88161124b565b935060208501356114b88161124b565b925060408501359150606085013567ffffffffffffffff8111156114db57600080fd5b8501601f810187136114ec57600080fd5b6114fb878235602084016112a2565b91505092959194509250565b6000806040838503121561151a57600080fd5b82356115258161124b565b915060208301356113e98161124b565b6000806000806080858703121561154b57600080fd5b84356115568161124b565b9350602085013567ffffffffffffffff81111561157257600080fd5b61157e8782880161131c565b93505060408501356002811061159357600080fd5b9396929550929360600135925050565b600181811c908216806115b757607f821691505b6020821081036115d757634e487b7160e01b600052602260045260246000fd5b50919050565b602080825260149082015273151bdad95b88191bd95cc81b9bdd08195e1a5cdd60621b604082015260600190565b601f8211156105cc57806000526020600020601f840160051c810160208510156116325750805b601f840160051c820191505b81811015610e5a576000815560010161163e565b815167ffffffffffffffff81111561166c5761166c61128c565b6116808161167a84546115a3565b8461160b565b6020601f8211600181146116b4576000831561169c5750848201515b600019600385901b1c1916600184901b178455610e5a565b600084815260208120601f198516915b828110156116e457878501518255602094850194600190920191016116c4565b50848210156117025786840151600019600387901b60f8161c191681555b50505050600190811b01905550565b60006020828403121561172357600080fd5b81516111d28161124b565b634e487b7160e01b600052602160045260246000fd5b60006001820161176457634e487b7160e01b600052601160045260246000fd5b5060010190565b6001600160a01b038581168252841660208201526040810183905260806060820181905260009061179e908301846111d9565b9695505050505050565b6000602082840312156117ba57600080fd5b81516111d28161119f56fea264697066735822122037cb3b009e5f4e15b0d04fdda9c01c916edf360abdbd833d448899004cd6633464736f6c634300081a0033","linkReferences":{}},"methodIdentifiers":{"DEFAULT_ADMIN_ROLE()":"a217fddf","URI_UPDATER_ROLE()":"b79c2e56","approve(address,uint256)":"095ea7b3","balanceOf(address)":"70a08231","getApproved(uint256)":"081812fc","getCount()":"a87d942c","getPerformances(uint256)":"9c9d7c2c","getRoleAdmin(bytes32)":"248a9ca3","grantRole(bytes32,address)":"2f2ff15d","hasRole(bytes32,address)":"91d14854","isApprovedForAll(address,address)":"e985e9c5","mint(address,string,uint8,uint256)":"f67e3c4a","name()":"06fdde03","ownerOf(uint256)":"6352211e","renounceRole(bytes32,address)":"36568abe","revokeRole(bytes32,address)":"d547741f","revokeToken(uint256)":"7dc9e79b","safeTransferFrom(address,address,uint256)":"42842e0e","safeTransferFrom(address,address,uint256,bytes)":"b88d4fde","setApprovalForAll(address,bool)":"a22cb465","supportsInterface(bytes4)":"01ffc9a7","symbol()":"95d89b41","tokenURI(uint256)":"c87b56dd","transferFrom(address,address,uint256)":"23b872dd","updateTokenURI(uint256,string)":"18e97fd1"},"id":36}