{"abi":[{"type":"constructor","inputs":[],"stateMutability":"nonpayable"},{"type":"function","name":"DEFAULT_ADMIN_ROLE","inputs":[],"outputs":[{"name":"","type":"bytes32","internalType":"bytes32"}],"stateMutability":"view"},{"type":"function","name":"URI_UPDATER_ROLE","inputs":[],"outputs":[{"name":"","type":"bytes32","internalType":"bytes32"}],"stateMutability":"view"},{"type":"function","name":"approve","inputs":[{"name":"to","type":"address","internalType":"address"},{"name":"tokenId","type":"uint256","internalType":"uint256"}],"outputs":[],"stateMutability":"nonpayable"},{"type":"function","name":"balanceOf","inputs":[{"name":"owner","type":"address","internalType":"address"}],"outputs":[{"name":"","type":"uint256","internalType":"uint256"}],"stateMutability":"view"},{"type":"function","name":"getApproved","inputs":[{"name":"tokenId","type":"uint256","internalType":"uint256"}],"outputs":[{"name":"","type":"address","internalType":"address"}],"stateMutability":"view"},{"type":"function","name":"getCount","inputs":[],"outputs":[{"name":"","type":"uint256","internalType":"uint256"}],"stateMutability":"view"},{"type":"function","name":"getPerformances","inputs":[{"name":"diplomeId","type":"uint256","internalType":"uint256"}],"outputs":[{"name":"","type":"uint256[]","internalType":"uint256[]"}],"stateMutability":"view"},{"type":"function","name":"getRoleAdmin","inputs":[{"name":"role","type":"bytes32","internalType":"bytes32"}],"outputs":[{"name":"","type":"bytes32","internalType":"bytes32"}],"stateMutability":"view"},{"type":"function","name":"grantRole","inputs":[{"name":"role","type":"bytes32","internalType":"bytes32"},{"name":"account","type":"address","internalType":"address"}],"outputs":[],"stateMutability":"nonpayable"},{"type":"function","name":"hasRole","inputs":[{"name":"role","type":"bytes32","internalType":"bytes32"},{"name":"account","type":"address","internalType":"address"}],"outputs":[{"name":"","type":"bool","internalType":"bool"}],"stateMutability":"view"},{"type":"function","name":"isApprovedForAll","inputs":[{"name":"owner","type":"address","internalType":"address"},{"name":"operator","type":"address","internalType":"address"}],"outputs":[{"name":"","type":"bool","internalType":"bool"}],"stateMutability":"view"},{"type":"function","name":"mint","inputs":[{"name":"to","type":"address","internalType":"address"},{"name":"initialURI","type":"string","internalType":"string"},{"name":"_type","type":"uint8","internalType":"enum ESGI_diplomes.Types"},{"name":"diplomeId","type":"uint256","internalType":"uint256"}],"outputs":[],"stateMutability":"nonpayable"},{"type":"function","name":"name","inputs":[],"outputs":[{"name":"","type":"string","internalType":"string"}],"stateMutability":"view"},{"type":"function","name":"ownerOf","inputs":[{"name":"tokenId","type":"uint256","internalType":"uint256"}],"outputs":[{"name":"","type":"address","internalType":"address"}],"stateMutability":"view"},{"type":"function","name":"renounceRole","inputs":[{"name":"role","type":"bytes32","internalType":"bytes32"},{"name":"callerConfirmation","type":"address","internalType":"address"}],"outputs":[],"stateMutability":"nonpayable"},{"type":"function","name":"revokeRole","inputs":[{"name":"role","type":"bytes32","internalType":"bytes32"},{"name":"account","type":"address","internalType":"address"}],"outputs":[],"stateMutability":"nonpayable"},{"type":"function","name":"revokeToken","inputs":[{"name":"tokenId","type":"uint256","internalType":"uint256"}],"outputs":[],"stateMutability":"nonpayable"},{"type":"function","name":"safeTransferFrom","inputs":[{"name":"from","type":"address","internalType":"address"},{"name":"to","type":"address","internalType":"address"},{"name":"tokenId","type":"uint256","internalType":"uint256"}],"outputs":[],"stateMutability":"nonpayable"},{"type":"function","name":"safeTransferFrom","inputs":[{"name":"from","type":"address","internalType":"address"},{"name":"to","type":"address","internalType":"address"},{"name":"tokenId","type":"uint256","internalType":"uint256"},{"name":"data","type":"bytes","internalType":"bytes"}],"outputs":[],"stateMutability":"nonpayable"},{"type":"function","name":"setApprovalForAll","inputs":[{"name":"operator","type":"address","internalType":"address"},{"name":"approved","type":"bool","internalType":"bool"}],"outputs":[],"stateMutability":"nonpayable"},{"type":"function","name":"supportsInterface","inputs":[{"name":"interfaceId","type":"bytes4","internalType":"bytes4"}],"outputs":[{"name":"","type":"bool","internalType":"bool"}],"stateMutability":"view"},{"type":"function","name":"symbol","inputs":[],"outputs":[{"name":"","type":"string","internalType":"string"}],"stateMutability":"view"},{"type":"function","name":"tokenURI","inputs":[{"name":"tokenId","type":"uint256","internalType":"uint256"}],"outputs":[{"name":"","type":"string","internalType":"string"}],"stateMutability":"view"},{"type":"function","name":"transferFrom","inputs":[{"name":"from","type":"address","internalType":"address"},{"name":"to","type":"address","internalType":"address"},{"name":"tokenId","type":"uint256","internalType":"uint256"}],"outputs":[],"stateMutability":"nonpayable"},{"type":"function","name":"updateTokenURI","inputs":[{"name":"tokenId","type":"uint256","internalType":"uint256"},{"name":"newURI","type":"string","internalType":"string"}],"outputs":[],"stateMutability":"nonpayable"},{"type":"event","name":"Approval","inputs":[{"name":"owner","type":"address","indexed":true,"internalType":"address"},{"name":"approved","type":"address","indexed":true,"internalType":"address"},{"name":"tokenId","type":"uint256","indexed":true,"internalType":"uint256"}],"anonymous":false},{"type":"event","name":"ApprovalForAll","inputs":[{"name":"owner","type":"address","indexed":true,"internalType":"address"},{"name":"operator","type":"address","indexed":true,"internalType":"address"},{"name":"approved","type":"bool","indexed":false,"internalType":"bool"}],"anonymous":false},{"type":"event","name":"RoleAdminChanged","inputs":[{"name":"role","type":"bytes32","indexed":true,"internalType":"bytes32"},{"name":"previousAdminRole","type":"bytes32","indexed":true,"internalType":"bytes32"},{"name":"newAdminRole","type":"bytes32","indexed":true,"internalType":"bytes32"}],"anonymous":false},{"type":"event","name":"RoleGranted","inputs":[{"name":"role","type":"bytes32","indexed":true,"internalType":"bytes32"},{"name":"account","type":"address","indexed":true,"internalType":"address"},{"name":"sender","type":"address","indexed":true,"internalType":"address"}],"anonymous":false},{"type":"event","name":"RoleRevoked","inputs":[{"name":"role","type":"bytes32","indexed":true,"internalType":"bytes32"},{"name":"account","type":"address","indexed":true,"internalType":"address"},{"name":"sender","type":"address","indexed":true,"internalType":"address"}],"anonymous":false},{"type":"event","name":"Transfer","inputs":[{"name":"from","type":"address","indexed":true,"internalType":"address"},{"name":"to","type":"address","indexed":true,"internalType":"address"},{"name":"tokenId","type":"uint256","indexed":true,"internalType":"uint256"}],"anonymous":false},{"type":"error","name":"AccessControlBadConfirmation","inputs":[]},{"type":"error","name":"AccessControlUnauthorizedAccount","inputs":[{"name":"account","type":"address","internalType":"address"},{"name":"neededRole","type":"bytes32","internalType":"bytes32"}]},{"type":"error","name":"ERC721IncorrectOwner","inputs":[{"name":"sender","type":"address","internalType":"address"},{"name":"tokenId","type":"uint256","internalType":"uint256"},{"name":"owner","type":"address","internalType":"address"}]},{"type":"error","name":"ERC721InsufficientApproval","inputs":[{"name":"operator","type":"address","internalType":"address"},{"name":"tokenId","type":"uint256","internalType":"uint256"}]},{"type":"error","name":"ERC721InvalidApprover","inputs":[{"name":"approver","type":"address","internalType":"address"}]},{"type":"error","name":"ERC721InvalidOperator","inputs":[{"name":"operator","type":"address","internalType":"address"}]},{"type":"error","name":"ERC721InvalidOwner","inputs":[{"name":"owner","type":"address","internalType":"address"}]},{"type":"error","name":"ERC721InvalidReceiver","inputs":[{"name":"receiver","type":"address","internalType":"address"}]},{"type":"error","name":"ERC721InvalidSender","inputs":[{"name":"sender","type":"address","internalType":"address"}]},{"type":"error","name":"ERC721NonexistentToken","inputs":[{"name":"tokenId","type":"uint256","internalType":"uint256"}]}],"bytecode":{"object":"0x608060405234801561000f575f5ffd5b506040518060400160405280600d81526020017f455347495f6469706c6f6d6573000000000000000000000000000000000000008152506040518060400160405280600581526020017f4553444964000000000000000000000000000000000000000000000000000000815250815f908161008a9190610484565b50806001908161009a9190610484565b5050506100af5f5f1b336100e660201b60201c565b506100e07f6ee315d4faf1b0c431d0ecf2a43a011e467519ee93e96ae9adec9f0a251fe810336100e660201b60201c565b50610553565b5f6100f783836101dc60201b60201c565b6101d257600160065f8581526020019081526020015f205f015f8473ffffffffffffffffffffffffffffffffffffffff1673ffffffffffffffffffffffffffffffffffffffff1681526020019081526020015f205f6101000a81548160ff02191690831515021790555061016f61024060201b60201c565b73ffffffffffffffffffffffffffffffffffffffff168273ffffffffffffffffffffffffffffffffffffffff16847f2f8788117e7eff1d82e926ec794901d17c78024a50270940304540a733656f0d60405160405180910390a4600190506101d6565b5f90505b92915050565b5f60065f8481526020019081526020015f205f015f8373ffffffffffffffffffffffffffffffffffffffff1673ffffffffffffffffffffffffffffffffffffffff1681526020019081526020015f205f9054906101000a900460ff16905092915050565b5f33905090565b5f81519050919050565b7f4e487b71000000000000000000000000000000000000000000000000000000005f52604160045260245ffd5b7f4e487b71000000000000000000000000000000000000000000000000000000005f52602260045260245ffd5b5f60028204905060018216806102c257607f821691505b6020821081036102d5576102d461027e565b5b50919050565b5f819050815f5260205f209050919050565b5f6020601f8301049050919050565b5f82821b905092915050565b5f600883026103377fffffffffffffffffffffffffffffffffffffffffffffffffffffffffffffffff826102fc565b61034186836102fc565b95508019841693508086168417925050509392505050565b5f819050919050565b5f819050919050565b5f61038561038061037b84610359565b610362565b610359565b9050919050565b5f819050919050565b61039e8361036b565b6103b26103aa8261038c565b848454610308565b825550505050565b5f5f905090565b6103c96103ba565b6103d4818484610395565b505050565b5b818110156103f7576103ec5f826103c1565b6001810190506103da565b5050565b601f82111561043c5761040d816102db565b610416846102ed565b81016020851015610425578190505b610439610431856102ed565b8301826103d9565b50505b505050565b5f82821c905092915050565b5f61045c5f1984600802610441565b1980831691505092915050565b5f610474838361044d565b9150826002028217905092915050565b61048d82610247565b67ffffffffffffffff8111156104a6576104a5610251565b5b6104b082546102ab565b6104bb8282856103fb565b5f60209050601f8311600181146104ec575f84156104da578287015190505b6104e48582610469565b86555061054b565b601f1984166104fa866102db565b5f5b82811015610521578489015182556001820191506020850194506020810190506104fc565b8683101561053e578489015161053a601f89168261044d565b8355505b6001600288020188555050505b505050505050565b612c37806105605f395ff3fe608060405234801561000f575f5ffd5b5060043610610171575f3560e01c80637dc9e79b116100dc578063a87d942c11610095578063c87b56dd1161006f578063c87b56dd14610457578063d547741f14610487578063e985e9c5146104a3578063f67e3c4a146104d357610171565b8063a87d942c146103ff578063b79c2e561461041d578063b88d4fde1461043b57610171565b80637dc9e79b1461032b57806391d148541461034757806395d89b41146103775780639c9d7c2c14610395578063a217fddf146103c5578063a22cb465146103e357610171565b8063248a9ca31161012e578063248a9ca3146102475780632f2ff15d1461027757806336568abe1461029357806342842e0e146102af5780636352211e146102cb57806370a08231146102fb57610171565b806301ffc9a71461017557806306fdde03146101a5578063081812fc146101c3578063095ea7b3146101f357806318e97fd11461020f57806323b872dd1461022b575b5f5ffd5b61018f600480360381019061018a9190611e2f565b6104ef565b60405161019c9190611e74565b60405180910390f35b6101ad610500565b6040516101ba9190611efd565b60405180910390f35b6101dd60048036038101906101d89190611f50565b61058f565b6040516101ea9190611fba565b60405180910390f35b61020d60048036038101906102089190611ffd565b6105aa565b005b61022960048036038101906102249190612167565b6105c0565b005b610245600480360381019061024091906121c1565b610652565b005b610261600480360381019061025c9190612244565b610751565b60405161026e919061227e565b60405180910390f35b610291600480360381019061028c9190612297565b61076e565b005b6102ad60048036038101906102a89190612297565b610790565b005b6102c960048036038101906102c491906121c1565b61080b565b005b6102e560048036038101906102e09190611f50565b61082a565b6040516102f29190611fba565b60405180910390f35b610315600480360381019061031091906122d5565b61083b565b604051610322919061230f565b60405180910390f35b61034560048036038101906103409190611f50565b6108f1565b005b610361600480360381019061035c9190612297565b61098a565b60405161036e9190611e74565b60405180910390f35b61037f6109ee565b60405161038c9190611efd565b60405180910390f35b6103af60048036038101906103aa9190611f50565b610a7e565b6040516103bc91906123df565b60405180910390f35b6103cd610ae5565b6040516103da919061227e565b60405180910390f35b6103fd60048036038101906103f89190612429565b610aeb565b005b610407610b01565b604051610414919061230f565b60405180910390f35b610425610b0a565b604051610432919061227e565b60405180910390f35b61045560048036038101906104509190612505565b610b2e565b005b610471600480360381019061046c9190611f50565b610b53565b60405161047e9190611efd565b60405180910390f35b6104a1600480360381019061049c9190612297565b610c38565b005b6104bd60048036038101906104b89190612585565b610c5a565b6040516104ca9190611e74565b60405180910390f35b6104ed60048036038101906104e891906125e6565b610ce8565b005b5f6104f982610e4d565b9050919050565b60605f805461050e90612693565b80601f016020809104026020016040519081016040528092919081815260200182805461053a90612693565b80156105855780601f1061055c57610100808354040283529160200191610585565b820191905f5260205f20905b81548152906001019060200180831161056857829003601f168201915b5050505050905090565b5f61059982610ec6565b506105a382610f4c565b9050919050565b6105bc82826105b7610f85565b610f8c565b5050565b7f6ee315d4faf1b0c431d0ecf2a43a011e467519ee93e96ae9adec9f0a251fe8106105ea81610f9e565b600754831061062e576040517f08c379a00000000000000000000000000000000000000000000000000000000081526004016106259061270d565b60405180910390fd5b8160085f8581526020019081526020015f20908161064c91906128cb565b50505050565b5f73ffffffffffffffffffffffffffffffffffffffff168273ffffffffffffffffffffffffffffffffffffffff16036106c2575f6040517f64a0ae920000000000000000000000000000000000000000000000000000000081526004016106b99190611fba565b60405180910390fd5b5f6106d583836106d0610f85565b610fb2565b90508373ffffffffffffffffffffffffffffffffffffffff168173ffffffffffffffffffffffffffffffffffffffff161461074b578382826040517f64283d7b0000000000000000000000000000000000000000000000000000000081526004016107429392919061299a565b60405180910390fd5b50505050565b5f60065f8381526020019081526020015f20600101549050919050565b61077782610751565b61078081610f9e565b61078a83836111bd565b50505050565b610798610f85565b73ffffffffffffffffffffffffffffffffffffffff168173ffffffffffffffffffffffffffffffffffffffff16146107fc576040517f6697b23200000000000000000000000000000000000000000000000000000000815260040160405180910390fd5b61080682826112a7565b505050565b61082583838360405180602001604052805f815250610b2e565b505050565b5f61083482610ec6565b9050919050565b5f5f73ffffffffffffffffffffffffffffffffffffffff168273ffffffffffffffffffffffffffffffffffffffff16036108ac575f6040517f89c62b640000000000000000000000000000000000000000000000000000000081526004016108a39190611fba565b60405180910390fd5b60035f8373ffffffffffffffffffffffffffffffffffffffff1673ffffffffffffffffffffffffffffffffffffffff1681526020019081526020015f20549050919050565b5f5f1b6108fd81610f9e565b6007548210610941576040517f08c379a00000000000000000000000000000000000000000000000000000000081526004016109389061270d565b60405180910390fd5b61094a82611391565b60085f8381526020019081526020015f205f6109669190611d71565b60095f8381526020019081526020015f205f6101000a81549060ff02191690555050565b5f60065f8481526020019081526020015f205f015f8373ffffffffffffffffffffffffffffffffffffffff1673ffffffffffffffffffffffffffffffffffffffff1681526020019081526020015f205f9054906101000a900460ff16905092915050565b6060600180546109fd90612693565b80601f0160208091040260200160405190810160405280929190818152602001828054610a2990612693565b8015610a745780601f10610a4b57610100808354040283529160200191610a74565b820191905f5260205f20905b815481529060010190602001808311610a5757829003601f168201915b5050505050905090565b6060600a5f8381526020019081526020015f20805480602002602001604051908101604052809291908181526020018280548015610ad957602002820191905f5260205f20905b815481526020019060010190808311610ac5575b50505050509050919050565b5f5f1b81565b610afd610af6610f85565b8383611413565b5050565b5f600754905090565b7f6ee315d4faf1b0c431d0ecf2a43a011e467519ee93e96ae9adec9f0a251fe81081565b610b39848484610652565b610b4d610b44610f85565b8585858561157c565b50505050565b60606007548210610b99576040517f08c379a0000000000000000000000000000000000000000000000000000000008152600401610b909061270d565b60405180910390fd5b60085f8381526020019081526020015f208054610bb590612693565b80601f0160208091040260200160405190810160405280929190818152602001828054610be190612693565b8015610c2c5780601f10610c0357610100808354040283529160200191610c2c565b820191905f5260205f20905b815481529060010190602001808311610c0f57829003601f168201915b50505050509050919050565b610c4182610751565b610c4a81610f9e565b610c5483836112a7565b50505050565b5f60055f8473ffffffffffffffffffffffffffffffffffffffff1673ffffffffffffffffffffffffffffffffffffffff1681526020019081526020015f205f8373ffffffffffffffffffffffffffffffffffffffff1673ffffffffffffffffffffffffffffffffffffffff1681526020019081526020015f205f9054906101000a900460ff16905092915050565b5f5f1b610cf481610f9e565b5f6001811115610d0757610d066129cf565b5b836001811115610d1a57610d196129cf565b5b1480610d27575060075482105b610d66576040517f08c379a0000000000000000000000000000000000000000000000000000000008152600401610d5d90612a46565b60405180910390fd5b5f60075490508360095f8381526020019081526020015f205f6101000a81548160ff02191690836001811115610d9f57610d9e6129cf565b5b0217905550600180811115610db757610db66129cf565b5b846001811115610dca57610dc96129cf565b5b03610e0557600a5f8481526020019081526020015f2081908060018154018082558091505060019003905f5260205f20015f90919091909150555b610e0f8682611728565b8460085f8381526020019081526020015f209081610e2d91906128cb565b5060075f815480929190610e4090612a91565b9190505550505050505050565b5f7f7965db0b000000000000000000000000000000000000000000000000000000007bffffffffffffffffffffffffffffffffffffffffffffffffffffffff1916827bffffffffffffffffffffffffffffffffffffffffffffffffffffffff19161480610ebf5750610ebe82611745565b5b9050919050565b5f5f610ed183611826565b90505f73ffffffffffffffffffffffffffffffffffffffff168173ffffffffffffffffffffffffffffffffffffffff1603610f4357826040517f7e273289000000000000000000000000000000000000000000000000000000008152600401610f3a919061230f565b60405180910390fd5b80915050919050565b5f60045f8381526020019081526020015f205f9054906101000a900473ffffffffffffffffffffffffffffffffffffffff169050919050565b5f33905090565b610f99838383600161185f565b505050565b610faf81610faa610f85565b611a1e565b50565b5f5f610fbd84611826565b90505f73ffffffffffffffffffffffffffffffffffffffff168373ffffffffffffffffffffffffffffffffffffffff1614610ffe57610ffd818486611a6f565b5b5f73ffffffffffffffffffffffffffffffffffffffff168173ffffffffffffffffffffffffffffffffffffffff16146110895761103d5f855f5f61185f565b600160035f8373ffffffffffffffffffffffffffffffffffffffff1673ffffffffffffffffffffffffffffffffffffffff1681526020019081526020015f205f82825403925050819055505b5f73ffffffffffffffffffffffffffffffffffffffff168573ffffffffffffffffffffffffffffffffffffffff161461110857600160035f8773ffffffffffffffffffffffffffffffffffffffff1673ffffffffffffffffffffffffffffffffffffffff1681526020019081526020015f205f82825401925050819055505b8460025f8681526020019081526020015f205f6101000a81548173ffffffffffffffffffffffffffffffffffffffff021916908373ffffffffffffffffffffffffffffffffffffffff160217905550838573ffffffffffffffffffffffffffffffffffffffff168273ffffffffffffffffffffffffffffffffffffffff167fddf252ad1be2c89b69c2b068fc378daa952ba7f163c4a11628f55a4df523b3ef60405160405180910390a4809150509392505050565b5f6111c8838361098a565b61129d57600160065f8581526020019081526020015f205f015f8473ffffffffffffffffffffffffffffffffffffffff1673ffffffffffffffffffffffffffffffffffffffff1681526020019081526020015f205f6101000a81548160ff02191690831515021790555061123a610f85565b73ffffffffffffffffffffffffffffffffffffffff168273ffffffffffffffffffffffffffffffffffffffff16847f2f8788117e7eff1d82e926ec794901d17c78024a50270940304540a733656f0d60405160405180910390a4600190506112a1565b5f90505b92915050565b5f6112b2838361098a565b15611387575f60065f8581526020019081526020015f205f015f8473ffffffffffffffffffffffffffffffffffffffff1673ffffffffffffffffffffffffffffffffffffffff1681526020019081526020015f205f6101000a81548160ff021916908315150217905550611324610f85565b73ffffffffffffffffffffffffffffffffffffffff168273ffffffffffffffffffffffffffffffffffffffff16847ff6391f5c32d9c69d2a47ea670b442974b53935d1edc7fd64eb21e047a839171b60405160405180910390a46001905061138b565b5f90505b92915050565b5f61139d5f835f610fb2565b90505f73ffffffffffffffffffffffffffffffffffffffff168173ffffffffffffffffffffffffffffffffffffffff160361140f57816040517f7e273289000000000000000000000000000000000000000000000000000000008152600401611406919061230f565b60405180910390fd5b5050565b5f73ffffffffffffffffffffffffffffffffffffffff168273ffffffffffffffffffffffffffffffffffffffff160361148357816040517f5b08ba1800000000000000000000000000000000000000000000000000000000815260040161147a9190611fba565b60405180910390fd5b8060055f8573ffffffffffffffffffffffffffffffffffffffff1673ffffffffffffffffffffffffffffffffffffffff1681526020019081526020015f205f8473ffffffffffffffffffffffffffffffffffffffff1673ffffffffffffffffffffffffffffffffffffffff1681526020019081526020015f205f6101000a81548160ff0219169083151502179055508173ffffffffffffffffffffffffffffffffffffffff168373ffffffffffffffffffffffffffffffffffffffff167f17307eab39ab6107e8899845ad3d59bd9653f200f220920489ca2b5937696c318360405161156f9190611e74565b60405180910390a3505050565b5f8373ffffffffffffffffffffffffffffffffffffffff163b1115611721578273ffffffffffffffffffffffffffffffffffffffff1663150b7a02868685856040518563ffffffff1660e01b81526004016115da9493929190612b2a565b6020604051808303815f875af192505050801561161557506040513d601f19601f820116820180604052508101906116129190612b88565b60015b611696573d805f8114611643576040519150601f19603f3d011682016040523d82523d5f602084013e611648565b606091505b505f81510361168e57836040517f64a0ae920000000000000000000000000000000000000000000000000000000081526004016116859190611fba565b60405180910390fd5b805181602001fd5b63150b7a0260e01b7bffffffffffffffffffffffffffffffffffffffffffffffffffffffff1916817bffffffffffffffffffffffffffffffffffffffffffffffffffffffff19161461171f57836040517f64a0ae920000000000000000000000000000000000000000000000000000000081526004016117169190611fba565b60405180910390fd5b505b5050505050565b611741828260405180602001604052805f815250611b32565b5050565b5f7f80ac58cd000000000000000000000000000000000000000000000000000000007bffffffffffffffffffffffffffffffffffffffffffffffffffffffff1916827bffffffffffffffffffffffffffffffffffffffffffffffffffffffff1916148061180f57507f5b5e139f000000000000000000000000000000000000000000000000000000007bffffffffffffffffffffffffffffffffffffffffffffffffffffffff1916827bffffffffffffffffffffffffffffffffffffffffffffffffffffffff1916145b8061181f575061181e82611b55565b5b9050919050565b5f60025f8381526020019081526020015f205f9054906101000a900473ffffffffffffffffffffffffffffffffffffffff169050919050565b808061189757505f73ffffffffffffffffffffffffffffffffffffffff168273ffffffffffffffffffffffffffffffffffffffff1614155b156119c9575f6118a684610ec6565b90505f73ffffffffffffffffffffffffffffffffffffffff168373ffffffffffffffffffffffffffffffffffffffff161415801561191057508273ffffffffffffffffffffffffffffffffffffffff168173ffffffffffffffffffffffffffffffffffffffff1614155b801561192357506119218184610c5a565b155b1561196557826040517fa9fbf51f00000000000000000000000000000000000000000000000000000000815260040161195c9190611fba565b60405180910390fd5b81156119c757838573ffffffffffffffffffffffffffffffffffffffff168273ffffffffffffffffffffffffffffffffffffffff167f8c5be1e5ebec7d5bd14f71427d1e84f3dd0314c0f7b2291e5b200ac8c7c3b92560405160405180910390a45b505b8360045f8581526020019081526020015f205f6101000a81548173ffffffffffffffffffffffffffffffffffffffff021916908373ffffffffffffffffffffffffffffffffffffffff16021790555050505050565b611a28828261098a565b611a6b5780826040517fe2517d3f000000000000000000000000000000000000000000000000000000008152600401611a62929190612bb3565b60405180910390fd5b5050565b611a7a838383611bbe565b611b2d575f73ffffffffffffffffffffffffffffffffffffffff168373ffffffffffffffffffffffffffffffffffffffff1603611aee57806040517f7e273289000000000000000000000000000000000000000000000000000000008152600401611ae5919061230f565b60405180910390fd5b81816040517f177e802f000000000000000000000000000000000000000000000000000000008152600401611b24929190612bda565b60405180910390fd5b505050565b611b3c8383611c7e565b611b50611b47610f85565b5f85858561157c565b505050565b5f7f01ffc9a7000000000000000000000000000000000000000000000000000000007bffffffffffffffffffffffffffffffffffffffffffffffffffffffff1916827bffffffffffffffffffffffffffffffffffffffffffffffffffffffff1916149050919050565b5f5f73ffffffffffffffffffffffffffffffffffffffff168373ffffffffffffffffffffffffffffffffffffffff1614158015611c7557508273ffffffffffffffffffffffffffffffffffffffff168473ffffffffffffffffffffffffffffffffffffffff161480611c365750611c358484610c5a565b5b80611c7457508273ffffffffffffffffffffffffffffffffffffffff16611c5c83610f4c565b73ffffffffffffffffffffffffffffffffffffffff16145b5b90509392505050565b5f73ffffffffffffffffffffffffffffffffffffffff168273ffffffffffffffffffffffffffffffffffffffff1603611cee575f6040517f64a0ae92000000000000000000000000000000000000000000000000000000008152600401611ce59190611fba565b60405180910390fd5b5f611cfa83835f610fb2565b90505f73ffffffffffffffffffffffffffffffffffffffff168173ffffffffffffffffffffffffffffffffffffffff1614611d6c575f6040517f73c6ac6e000000000000000000000000000000000000000000000000000000008152600401611d639190611fba565b60405180910390fd5b505050565b508054611d7d90612693565b5f825580601f10611d8e5750611dab565b601f0160209004905f5260205f2090810190611daa9190611dae565b5b50565b5b80821115611dc5575f815f905550600101611daf565b5090565b5f604051905090565b5f5ffd5b5f5ffd5b5f7fffffffff0000000000000000000000000000000000000000000000000000000082169050919050565b611e0e81611dda565b8114611e18575f5ffd5b50565b5f81359050611e2981611e05565b92915050565b5f60208284031215611e4457611e43611dd2565b5b5f611e5184828501611e1b565b91505092915050565b5f8115159050919050565b611e6e81611e5a565b82525050565b5f602082019050611e875f830184611e65565b92915050565b5f81519050919050565b5f82825260208201905092915050565b8281835e5f83830152505050565b5f601f19601f8301169050919050565b5f611ecf82611e8d565b611ed98185611e97565b9350611ee9818560208601611ea7565b611ef281611eb5565b840191505092915050565b5f6020820190508181035f830152611f158184611ec5565b905092915050565b5f819050919050565b611f2f81611f1d565b8114611f39575f5ffd5b50565b5f81359050611f4a81611f26565b92915050565b5f60208284031215611f6557611f64611dd2565b5b5f611f7284828501611f3c565b91505092915050565b5f73ffffffffffffffffffffffffffffffffffffffff82169050919050565b5f611fa482611f7b565b9050919050565b611fb481611f9a565b82525050565b5f602082019050611fcd5f830184611fab565b92915050565b611fdc81611f9a565b8114611fe6575f5ffd5b50565b5f81359050611ff781611fd3565b92915050565b5f5f6040838503121561201357612012611dd2565b5b5f61202085828601611fe9565b925050602061203185828601611f3c565b9150509250929050565b5f5ffd5b5f5ffd5b7f4e487b71000000000000000000000000000000000000000000000000000000005f52604160045260245ffd5b61207982611eb5565b810181811067ffffffffffffffff8211171561209857612097612043565b5b80604052505050565b5f6120aa611dc9565b90506120b68282612070565b919050565b5f67ffffffffffffffff8211156120d5576120d4612043565b5b6120de82611eb5565b9050602081019050919050565b828183375f83830152505050565b5f61210b612106846120bb565b6120a1565b9050828152602081018484840111156121275761212661203f565b5b6121328482856120eb565b509392505050565b5f82601f83011261214e5761214d61203b565b5b813561215e8482602086016120f9565b91505092915050565b5f5f6040838503121561217d5761217c611dd2565b5b5f61218a85828601611f3c565b925050602083013567ffffffffffffffff8111156121ab576121aa611dd6565b5b6121b78582860161213a565b9150509250929050565b5f5f5f606084860312156121d8576121d7611dd2565b5b5f6121e586828701611fe9565b93505060206121f686828701611fe9565b925050604061220786828701611f3c565b9150509250925092565b5f819050919050565b61222381612211565b811461222d575f5ffd5b50565b5f8135905061223e8161221a565b92915050565b5f6020828403121561225957612258611dd2565b5b5f61226684828501612230565b91505092915050565b61227881612211565b82525050565b5f6020820190506122915f83018461226f565b92915050565b5f5f604083850312156122ad576122ac611dd2565b5b5f6122ba85828601612230565b92505060206122cb85828601611fe9565b9150509250929050565b5f602082840312156122ea576122e9611dd2565b5b5f6122f784828501611fe9565b91505092915050565b61230981611f1d565b82525050565b5f6020820190506123225f830184612300565b92915050565b5f81519050919050565b5f82825260208201905092915050565b5f819050602082019050919050565b61235a81611f1d565b82525050565b5f61236b8383612351565b60208301905092915050565b5f602082019050919050565b5f61238d82612328565b6123978185612332565b93506123a283612342565b805f5b838110156123d25781516123b98882612360565b97506123c483612377565b9250506001810190506123a5565b5085935050505092915050565b5f6020820190508181035f8301526123f78184612383565b905092915050565b61240881611e5a565b8114612412575f5ffd5b50565b5f81359050612423816123ff565b92915050565b5f5f6040838503121561243f5761243e611dd2565b5b5f61244c85828601611fe9565b925050602061245d85828601612415565b9150509250929050565b5f67ffffffffffffffff82111561248157612480612043565b5b61248a82611eb5565b9050602081019050919050565b5f6124a96124a484612467565b6120a1565b9050828152602081018484840111156124c5576124c461203f565b5b6124d08482856120eb565b509392505050565b5f82601f8301126124ec576124eb61203b565b5b81356124fc848260208601612497565b91505092915050565b5f5f5f5f6080858703121561251d5761251c611dd2565b5b5f61252a87828801611fe9565b945050602061253b87828801611fe9565b935050604061254c87828801611f3c565b925050606085013567ffffffffffffffff81111561256d5761256c611dd6565b5b612579878288016124d8565b91505092959194509250565b5f5f6040838503121561259b5761259a611dd2565b5b5f6125a885828601611fe9565b92505060206125b985828601611fe9565b9150509250929050565b600281106125cf575f5ffd5b50565b5f813590506125e0816125c3565b92915050565b5f5f5f5f608085870312156125fe576125fd611dd2565b5b5f61260b87828801611fe9565b945050602085013567ffffffffffffffff81111561262c5761262b611dd6565b5b6126388782880161213a565b9350506040612649878288016125d2565b925050606061265a87828801611f3c565b91505092959194509250565b7f4e487b71000000000000000000000000000000000000000000000000000000005f52602260045260245ffd5b5f60028204905060018216806126aa57607f821691505b6020821081036126bd576126bc612666565b5b50919050565b7f546f6b656e20646f6573206e6f742065786973740000000000000000000000005f82015250565b5f6126f7601483611e97565b9150612702826126c3565b602082019050919050565b5f6020820190508181035f830152612724816126eb565b9050919050565b5f819050815f5260205f209050919050565b5f6020601f8301049050919050565b5f82821b905092915050565b5f600883026127877fffffffffffffffffffffffffffffffffffffffffffffffffffffffffffffffff8261274c565b612791868361274c565b95508019841693508086168417925050509392505050565b5f819050919050565b5f6127cc6127c76127c284611f1d565b6127a9565b611f1d565b9050919050565b5f819050919050565b6127e5836127b2565b6127f96127f1826127d3565b848454612758565b825550505050565b5f5f905090565b612810612801565b61281b8184846127dc565b505050565b5b8181101561283e576128335f82612808565b600181019050612821565b5050565b601f821115612883576128548161272b565b61285d8461273d565b8101602085101561286c578190505b6128806128788561273d565b830182612820565b50505b505050565b5f82821c905092915050565b5f6128a35f1984600802612888565b1980831691505092915050565b5f6128bb8383612894565b9150826002028217905092915050565b6128d482611e8d565b67ffffffffffffffff8111156128ed576128ec612043565b5b6128f78254612693565b612902828285612842565b5f60209050601f831160018114612933575f8415612921578287015190505b61292b85826128b0565b865550612992565b601f1984166129418661272b565b5f5b8281101561296857848901518255600182019150602085019450602081019050612943565b868310156129855784890151612981601f891682612894565b8355505b6001600288020188555050505b505050505050565b5f6060820190506129ad5f830186611fab565b6129ba6020830185612300565b6129c76040830184611fab565b949350505050565b7f4e487b71000000000000000000000000000000000000000000000000000000005f52602160045260245ffd5b7f4469706c6f6d6520646f6573206e6f74206578697374000000000000000000005f82015250565b5f612a30601683611e97565b9150612a3b826129fc565b602082019050919050565b5f6020820190508181035f830152612a5d81612a24565b9050919050565b7f4e487b71000000000000000000000000000000000000000000000000000000005f52601160045260245ffd5b5f612a9b82611f1d565b91507fffffffffffffffffffffffffffffffffffffffffffffffffffffffffffffffff8203612acd57612acc612a64565b5b600182019050919050565b5f81519050919050565b5f82825260208201905092915050565b5f612afc82612ad8565b612b068185612ae2565b9350612b16818560208601611ea7565b612b1f81611eb5565b840191505092915050565b5f608082019050612b3d5f830187611fab565b612b4a6020830186611fab565b612b576040830185612300565b8181036060830152612b698184612af2565b905095945050505050565b5f81519050612b8281611e05565b92915050565b5f60208284031215612b9d57612b9c611dd2565b5b5f612baa84828501612b74565b91505092915050565b5f604082019050612bc65f830185611fab565b612bd3602083018461226f565b9392505050565b5f604082019050612bed5f830185611fab565b612bfa6020830184612300565b939250505056fea26469706673582212203491f91fa87d4e19c09cc1d56a0e59b6ab9428576940d1c59068143a090ccbe564736f6c634300081c0033","linkReferences":{}},"methodIdentifiers":{"DEFAULT_ADMIN_ROLE()":"a217fddf","URI_UPDATER_ROLE()":"b79c2e56","approve(address,uint256)":"095ea7b3","balanceOf(address)":"70a08231","getApproved(uint256)":"081812fc","getCount()":"a87d942c","getPerformances(uint256)":"9c9d7c2c","getRoleAdmin(bytes32)":"248a9ca3","grantRole(bytes32,address)":"2f2ff15d","hasRole(bytes32,address)":"91d14854","isApprovedForAll(address,address)":"e985e9c5","mint(address,string,uint8,uint256)":"f67e3c4a","name()":"06fdde03","ownerOf(uint256)":"6352211e","renounceRole(bytes32,address)":"36568abe","revokeRole(bytes32,address)":"d547741f","revokeToken(uint256)":"7dc9e79b","safeTransferFrom(address,address,uint256)":"42842e0e","safeTransferFrom(address,address,uint256,bytes)":"b88d4fde","setApprovalForAll(address,bool)":"a22cb465","supportsInterface(bytes4)":"01ffc9a7","symbol()":"95d89b41","tokenURI(uint256)":"c87b56dd","transferFrom(address,address,uint256)":"23b872dd","updateTokenURI(uint256,string)":"18e97fd1"},"id":36}